{"abi":[{"type":"constructor","inputs":[],"stateMutability":"nonpayable"},{"type":"function","name":"MAX_PRICE_CHANGE","inputs":[],"outputs":[{"name":"","type":"uint256","internalType":"uint256"}],"stateMutability":"view"},{"type":"function","name":"PRICE_DECIMALS","inputs":[],"outputs":[{"name":"","type":"uint256","internalType":"uint256"}],"stateMutability":"view"},{"type":"function","name":"UPDATE_THRESHOLD","inputs":[],"outputs":[{"name":"","type":"uint256","internalType":"uint256"}],"stateMutability":"view"},{"type":"function","name":"convertPoiToUsd","inputs":[{"name":"poiAmount","type":"uint256","internalType":"uint256"}],"outputs":[{"name":"","type":"uint256","internalType":"uint256"}],"stateMutability":"view"},{"type":"function","name":"convertUsdToPoi","inputs":[{"name":"usdAmount","type":"uint256","internalType":"uint256"}],"outputs":[{"name":"","type":"uint256","internalType":"uint256"}],"stateMutability":"view"},{"type":"function","name":"emergencyStopped","inputs":[],"outputs":[{"name":"","type":"bool","internalType":"bool"}],"stateMutability":"view"},{"type":"function","name":"getGoldPricePerGram","inputs":[],"outputs":[{"name":"","type":"uint256","internalType":"uint256"}],"stateMutability":"view"},{"type":"function","name":"getGoldPriceWithTimestamp","inputs":[],"outputs":[{"name":"price","type":"uint256","internalType":"uint256"},{"name":"timestamp","type":"uint256","internalType":"uint256"}],"stateMutability":"view"},{"type":"function","name":"getTimeSinceLastUpdate","inputs":[],"outputs":[{"name":"","type":"uint256","internalType":"uint256"}],"stateMutability":"view"},{"type":"function","name":"goldPricePerGram","inputs":[],"outputs":[{"name":"","type":"uint256","internalType":"uint256"}],"stateMutability":"view"},{"type":"function","name":"isPriceStale","inputs":[],"outputs":[{"name":"","type":"bool","internalType":"bool"}],"stateMutability":"view"},{"type":"function","name":"lastUpdated","inputs":[],"outputs":[{"name":"","type":"uint256","internalType":"uint256"}],"stateMutability":"view"},{"type":"function","name":"mockPricePerGram","inputs":[],"outputs":[{"name":"","type":"uint256","internalType":"uint256"}],"stateMutability":"view"},{"type":"function","name":"owner","inputs":[],"outputs":[{"name":"","type":"address","internalType":"address"}],"stateMutability":"view"},{"type":"function","name":"pause","inputs":[],"outputs":[],"stateMutability":"nonpayable"},{"type":"function","name":"paused","inputs":[],"outputs":[{"name":"","type":"bool","internalType":"bool"}],"stateMutability":"view"},{"type":"function","name":"renounceOwnership","inputs":[],"outputs":[],"stateMutability":"nonpayable"},{"type":"function","name":"setEmergencyStop","inputs":[{"name":"stopped","type":"bool","internalType":"bool"}],"outputs":[],"stateMutability":"nonpayable"},{"type":"function","name":"setMockPriceMode","inputs":[{"name":"useMock","type":"bool","internalType":"bool"}],"outputs":[],"stateMutability":"nonpayable"},{"type":"function","name":"transferOwnership","inputs":[{"name":"newOwner","type":"address","internalType":"address"}],"outputs":[],"stateMutability":"nonpayable"},{"type":"function","name":"unpause","inputs":[],"outputs":[],"stateMutability":"nonpayable"},{"type":"function","name":"updateGoldPrice","inputs":[{"name":"newPrice","type":"uint256","internalType":"uint256"}],"outputs":[],"stateMutability":"nonpayable"},{"type":"function","name":"updateMockPrice","inputs":[{"name":"mockPrice","type":"uint256","internalType":"uint256"}],"outputs":[],"stateMutability":"nonpayable"},{"type":"function","name":"useMockPrice","inputs":[],"outputs":[{"name":"","type":"bool","internalType":"bool"}],"stateMutability":"view"},{"type":"event","name":"EmergencyStop","inputs":[{"name":"stopped","type":"bool","indexed":false,"internalType":"bool"}],"anonymous":false},{"type":"event","name":"OracleUpdated","inputs":[{"name":"newOracle","type":"address","indexed":true,"internalType":"address"}],"anonymous":false},{"type":"event","name":"OwnershipTransferred","inputs":[{"name":"previousOwner","type":"address","indexed":true,"internalType":"address"},{"name":"newOwner","type":"address","indexed":true,"internalType":"address"}],"anonymous":false},{"type":"event","name":"Paused","inputs":[{"name":"account","type":"address","indexed":false,"internalType":"address"}],"anonymous":false},{"type":"event","name":"PriceFeedUpdated","inputs":[{"name":"newPriceFeed","type":"address","indexed":true,"internalType":"address"}],"anonymous":false},{"type":"event","name":"PriceUpdated","inputs":[{"name":"price","type":"uint256","indexed":true,"internalType":"uint256"},{"name":"timestamp","type":"uint256","indexed":false,"internalType":"uint256"}],"anonymous":false},{"type":"event","name":"Unpaused","inputs":[{"name":"account","type":"address","indexed":false,"internalType":"address"}],"anonymous":false},{"type":"error","name":"EnforcedPause","inputs":[]},{"type":"error","name":"ExpectedPause","inputs":[]},{"type":"error","name":"OwnableInvalidOwner","inputs":[{"name":"owner","type":"address","internalType":"address"}]},{"type":"error","name":"OwnableUnauthorizedAccount","inputs":[{"name":"account","type":"address","internalType":"address"}]},{"type":"error","name":"ReentrancyGuardReentrantCall","inputs":[]}],"bytecode":{"object":"0x608080604052346100ce5733156100b9575f8054336001600160a01b03198216811783556040519290916001600160a01b0316907f8be0079c531659141344cd1fd0a4f28419497f9722a3daafe3b4186f6b6457e09080a3600180557f945c1c4e99aa89f648fbfe3df471b916f719e16d960fcec0737d4d56bd696838602060ff199260018460045416176004556303dfd2409384600555600654166006558360025542600355428152a2604051610aa790816100d38239f35b631e4fbdf760e01b81525f6004820152602490fd5b5f80fdfe6080604081815260049182361015610015575f80fd5b5f92833560e01c918263156ba6fe146108c95750816319af783e146108475781632084bf9f1461082a57816329d3006a146107f45781632f5df725146107c857816332c4ef2c146107a75781633f4ba83a1461073957816340814f211461066757816355b756b71461058a5781635adab99b146105655781635c975abb14610540578163715018a6146104e65781638456cb59146104875781638da5cb5b1461045f57816399f91f4f14610442578163b6c0982814610423578163b933efe3146103fd578163c73d7c7b1461039a578163d0b06f5d1461037b578163e2749c9614610357578163eebc56f1146101fa578163f1a640f8146101de578163f2fde38b1461014b575063f7e0cf241461012a575f80fd5b346101475781600319360112610147576020906002549051908152f35b5080fd5b919050346101da5760203660031901126101da576001600160a01b038235818116939192908490036101d65761017f6108e5565b83156101c057505082546001600160a01b0319811683178455167f8be0079c531659141344cd1fd0a4f28419497f9722a3daafe3b4186f6b6457e08380a380f35b51631e4fbdf760e01b8152908101849052602490fd5b8480fd5b8280fd5b5050346101475781600319360112610147576020905160088152f35b919050346101da5760203660031901126101da578135916102196108e5565b60ff600654166102fe5761022b6109c1565b6002600154146102f057610240831515610910565b61025164e8d4a51000841115610975565b6103e861026084600254610a20565b1161029e575060207f945c1c4e99aa89f648fbfe3df471b916f719e16d960fcec0737d4d56bd69683891836002554260035551428152a26001805580f35b6020608492519162461bcd60e51b8352820152602760248201527f476f6c6450726963654f7261636c653a205072696365206368616e676520746f6044820152666f206c6172676560c81b6064820152fd5b9051633ee5aeb560e01b8152fd5b6020608492519162461bcd60e51b8352820152602e60248201527f476f6c6450726963654f7261636c653a20436f6e747261637420697320656d6560448201526d1c99d95b98de481cdd1bdc1c195960921b6064820152fd5b50503461014757816003193601126101475760209060ff6006541690519015158152f35b5050346101475781600319360112610147576020906003549051908152f35b9050346101da5760203660031901126101da5735908115158092036101da577fcbe1b789cda412d9e1c647ed03d0c71e2f71484be36f9ca2b2a346b29edf1b70916020916103e66108e5565b60ff196006541660ff83161760065551908152a180f35b8284346104205780600319360112610420575060ff602092541690519015158152f35b80fd5b5050346101475781600319360112610147576020906005549051908152f35b5050346101475781600319360112610147576020905161012c8152f35b505034610147578160031936011261014757905490516001600160a01b039091168152602090f35b50503461014757816003193601126101475760207f62e78cea01bee320cd4e420270b5ea74000d11b0c9f74754ebdbfc544b05a258916104c56108e5565b6104cd6109c1565b835460ff60a01b1916600160a01b17845551338152a180f35b83346104205780600319360112610420576104ff6108e5565b80546001600160a01b03198116825581906001600160a01b03167f8be0079c531659141344cd1fd0a4f28419497f9722a3daafe3b4186f6b6457e08280a380f35b50503461014757816003193601126101475760ff6020925460a01c1690519015158152f35b8284346104205780600319360112610420575060025460035482519182526020820152f35b90508234610420576020366003190112610420578135918215610606576002546402540be400808202918083048214811517156105f357850202938404036105e057602083670de0b6b3a7640000865191048152f35b634e487b7160e01b825260119052602490fd5b634e487b7160e01b855260118452602485fd5b608490602085519162461bcd60e51b8352820152603560248201527f476f6c6450726963654f7261636c653a20504f4920616d6f756e74206d7573746044820152742062652067726561746572207468616e207a65726f60581b6064820152fd5b82843461042057602036600319011261042057823580156106d857600254916402540be400928381029381850414901517156106c557670de0b6b3a7640000808302928304036106c5576020846106be8585610a02565b9051908152f35b634e487b7160e01b815260118552602490fd5b825162461bcd60e51b8152602081860152603560248201527f476f6c6450726963654f7261636c653a2055534420616d6f756e74206d7573746044820152742062652067726561746572207468616e207a65726f60581b6064820152608490fd5b9050346101da57826003193601126101da576107536108e5565b82549060ff8260a01c1615610799575060ff60a01b19168255513381527f5db9ee0a495bf2e6ff9c91a7834c1ba4fdd244a5e8aa4e537bd38aeae4b073aa90602090a180f35b8251638dfc202b60e01b8152fd5b5050346101475781600319360112610147576020906106be600354426109e1565b50503461014757816003193601126101475760209061012c6107ec600354426109e1565b119051908152f35b8390346101475760203660031901126101475780358015158091036101da5761081b6108e5565b60ff8019835416911617905580f35b505034610147578160031936011261014757602090516103e88152f35b919050346101da5760203660031901126101da5760ff8235926108686108e5565b610873841515610910565b61088464e8d4a51000851115610975565b836005555416610892578280f35b60207f945c1c4e99aa89f648fbfe3df471b916f719e16d960fcec0737d4d56bd69683891836002554260035551428152a25f808280f35b8490346101475781600319360112610147576020906002548152f35b5f546001600160a01b031633036108f857565b60405163118cdaa760e01b8152336004820152602490fd5b1561091757565b60405162461bcd60e51b815260206004820152603060248201527f476f6c6450726963654f7261636c653a205072696365206d757374206265206760448201526f726561746572207468616e207a65726f60801b6064820152608490fd5b1561097c57565b60405162461bcd60e51b815260206004820152601f60248201527f476f6c6450726963654f7261636c653a20507269636520746f6f2068696768006044820152606490fd5b60ff5f5460a01c166109cf57565b60405163d93c066560e01b8152600490fd5b919082039182116109ee57565b634e487b7160e01b5f52601160045260245ffd5b8115610a0c570490565b634e487b7160e01b5f52601260045260245ffd5b908115610a6b578180821115610a5b57610a39916109e1565b905b612710918281029281840414901517156109ee57610a5891610a02565b90565b90610a65916109e1565b90610a3b565b50505f9056fea264697066735822122029d3a22a77f48061234653c491b7035291f0c38f98631490fd6faa851dfaf66764736f6c63430008140033","linkReferences":{}},"methodIdentifiers":{"MAX_PRICE_CHANGE()":"2084bf9f","PRICE_DECIMALS()":"f1a640f8","UPDATE_THRESHOLD()":"99f91f4f","convertPoiToUsd(uint256)":"55b756b7","convertUsdToPoi(uint256)":"40814f21","emergencyStopped()":"e2749c96","getGoldPricePerGram()":"156ba6fe","getGoldPriceWithTimestamp()":"5adab99b","getTimeSinceLastUpdate()":"32c4ef2c","goldPricePerGram()":"f7e0cf24","isPriceStale()":"2f5df725","lastUpdated()":"d0b06f5d","mockPricePerGram()":"b6c09828","owner()":"8da5cb5b","pause()":"8456cb59","paused()":"5c975abb","renounceOwnership()":"715018a6","setEmergencyStop(bool)":"c73d7c7b","setMockPriceMode(bool)":"29d3006a","transferOwnership(address)":"f2fde38b","unpause()":"3f4ba83a","updateGoldPrice(uint256)":"eebc56f1","updateMockPrice(uint256)":"19af783e","useMockPrice()":"b933efe3"},"id":33}