{"abi":[{"type":"constructor","inputs":[{"name":"_goldPriceFeed","type":"address","internalType":"address"}],"stateMutability":"nonpayable"},{"type":"function","name":"MAX_PRICE_CHANGE","inputs":[],"outputs":[{"name":"","type":"uint256","internalType":"uint256"}],"stateMutability":"view"},{"type":"function","name":"PRICE_DECIMALS","inputs":[],"outputs":[{"name":"","type":"uint256","internalType":"uint256"}],"stateMutability":"view"},{"type":"function","name":"UPDATE_THRESHOLD","inputs":[],"outputs":[{"name":"","type":"uint256","internalType":"uint256"}],"stateMutability":"view"},{"type":"function","name":"convertPoiToUsd","inputs":[{"name":"poiAmount","type":"uint256","internalType":"uint256"}],"outputs":[{"name":"","type":"uint256","internalType":"uint256"}],"stateMutability":"view"},{"type":"function","name":"convertUsdToPoi","inputs":[{"name":"usdAmount","type":"uint256","internalType":"uint256"}],"outputs":[{"name":"","type":"uint256","internalType":"uint256"}],"stateMutability":"view"},{"type":"function","name":"emergencyStopped","inputs":[],"outputs":[{"name":"","type":"bool","internalType":"bool"}],"stateMutability":"view"},{"type":"function","name":"getGoldPricePerGram","inputs":[],"outputs":[{"name":"","type":"uint256","internalType":"uint256"}],"stateMutability":"view"},{"type":"function","name":"getGoldPriceWithTimestamp","inputs":[],"outputs":[{"name":"price","type":"uint256","internalType":"uint256"},{"name":"timestamp","type":"uint256","internalType":"uint256"}],"stateMutability":"view"},{"type":"function","name":"getTimeSinceLastUpdate","inputs":[],"outputs":[{"name":"","type":"uint256","internalType":"uint256"}],"stateMutability":"view"},{"type":"function","name":"goldPriceFeed","inputs":[],"outputs":[{"name":"","type":"address","internalType":"address"}],"stateMutability":"view"},{"type":"function","name":"goldPricePerGram","inputs":[],"outputs":[{"name":"","type":"uint256","internalType":"uint256"}],"stateMutability":"view"},{"type":"function","name":"isPriceStale","inputs":[],"outputs":[{"name":"","type":"bool","internalType":"bool"}],"stateMutability":"view"},{"type":"function","name":"lastUpdated","inputs":[],"outputs":[{"name":"","type":"uint256","internalType":"uint256"}],"stateMutability":"view"},{"type":"function","name":"mockPricePerGram","inputs":[],"outputs":[{"name":"","type":"uint256","internalType":"uint256"}],"stateMutability":"view"},{"type":"function","name":"owner","inputs":[],"outputs":[{"name":"","type":"address","internalType":"address"}],"stateMutability":"view"},{"type":"function","name":"pause","inputs":[],"outputs":[],"stateMutability":"nonpayable"},{"type":"function","name":"paused","inputs":[],"outputs":[{"name":"","type":"bool","internalType":"bool"}],"stateMutability":"view"},{"type":"function","name":"renounceOwnership","inputs":[],"outputs":[],"stateMutability":"nonpayable"},{"type":"function","name":"setEmergencyStop","inputs":[{"name":"stopped","type":"bool","internalType":"bool"}],"outputs":[],"stateMutability":"nonpayable"},{"type":"function","name":"setGoldPriceFeed","inputs":[{"name":"_priceFeed","type":"address","internalType":"address"}],"outputs":[],"stateMutability":"nonpayable"},{"type":"function","name":"setMockPriceMode","inputs":[{"name":"useMock","type":"bool","internalType":"bool"}],"outputs":[],"stateMutability":"nonpayable"},{"type":"function","name":"transferOwnership","inputs":[{"name":"newOwner","type":"address","internalType":"address"}],"outputs":[],"stateMutability":"nonpayable"},{"type":"function","name":"unpause","inputs":[],"outputs":[],"stateMutability":"nonpayable"},{"type":"function","name":"updateGoldPrice","inputs":[{"name":"newPrice","type":"uint256","internalType":"uint256"}],"outputs":[],"stateMutability":"nonpayable"},{"type":"function","name":"updateMockPrice","inputs":[{"name":"mockPrice","type":"uint256","internalType":"uint256"}],"outputs":[],"stateMutability":"nonpayable"},{"type":"function","name":"updatePriceFromChainlink","inputs":[],"outputs":[],"stateMutability":"nonpayable"},{"type":"function","name":"useMockPrice","inputs":[],"outputs":[{"name":"","type":"bool","internalType":"bool"}],"stateMutability":"view"},{"type":"event","name":"EmergencyStop","inputs":[{"name":"stopped","type":"bool","indexed":false,"internalType":"bool"}],"anonymous":false},{"type":"event","name":"OracleUpdated","inputs":[{"name":"newOracle","type":"address","indexed":true,"internalType":"address"}],"anonymous":false},{"type":"event","name":"OwnershipTransferred","inputs":[{"name":"previousOwner","type":"address","indexed":true,"internalType":"address"},{"name":"newOwner","type":"address","indexed":true,"internalType":"address"}],"anonymous":false},{"type":"event","name":"Paused","inputs":[{"name":"account","type":"address","indexed":false,"internalType":"address"}],"anonymous":false},{"type":"event","name":"PriceFeedUpdated","inputs":[{"name":"newPriceFeed","type":"address","indexed":true,"internalType":"address"}],"anonymous":false},{"type":"event","name":"PriceUpdated","inputs":[{"name":"price","type":"uint256","indexed":true,"internalType":"uint256"},{"name":"timestamp","type":"uint256","indexed":false,"internalType":"uint256"}],"anonymous":false},{"type":"event","name":"Unpaused","inputs":[{"name":"account","type":"address","indexed":false,"internalType":"address"}],"anonymous":false},{"type":"error","name":"EnforcedPause","inputs":[]},{"type":"error","name":"ExpectedPause","inputs":[]},{"type":"error","name":"OwnableInvalidOwner","inputs":[{"name":"owner","type":"address","internalType":"address"}]},{"type":"error","name":"OwnableUnauthorizedAccount","inputs":[{"name":"account","type":"address","internalType":"address"}]},{"type":"error","name":"ReentrancyGuardReentrantCall","inputs":[]}],"bytecode":{"object":"0x608080604052346200012557602081620010a4803803809162000023828562000129565b8339810103126200012557516001600160a01b039081811690819003620001255733156200010d575f543360018060a01b03198216175f55604051923391167f8be0079c531659141344cd1fd0a4f28419497f9722a3daafe3b4186f6b6457e05f80a36001805560ff19918260045416806004556303dfd24092836005558060018060a81b0319600654161760065515155f14620000df5750505060045416600455620000cf62000176565b604051610e119081620002738239f35b5f8051602062001084833981519152929350906001602092176004558360025542600355428152a2620000cf565b604051631e4fbdf760e01b81525f6004820152602490fd5b5f80fd5b601f909101601f19168101906001600160401b038211908210176200014d57604052565b634e487b7160e01b5f52604160045260245ffd5b51906001600160501b03821682036200012557565b6006546001600160a01b031680156200026f5760a060049160405192838092633fabe5a360e21b82525afa90815f9182936200020c575b50620001b7575050565b6305f5e10090818102918183041490151715620001f857602063b96423a05f80516020620010848339815191529204928360025580600355604051908152a2565b634e487b7160e01b5f52601160045260245ffd5b9190925060a0823d821162000266575b816200022b60a0938362000129565b81010312620002635750620002408162000161565b5060208101516200025960806060840151930162000161565b5090915f620001ad565b80fd5b3d91506200021c565b5056fe60406080815260049081361015610014575f80fd5b5f91823560e01c908163108b113114610936578163156ba6fe1461091957816319af783e146108975781632084bf9f1461087a57816329d3006a146108445781632f5df7251461081857816332c4ef2c146107f75781633f4ba83a1461078957816340814f21146106b757816355b756b7146105da5781635adab99b146105b55781635c975abb14610590578163715018a6146105365781638456cb59146104d75781638da5cb5b146104af57816399f91f4f14610492578163b6c0982814610473578163b933efe31461044d578163c422f9d014610424578163c73d7c7b146103b7578163d0b06f5d14610398578163dc24785e1461033c578163e2749c9614610315578163eebc56f114610219578163f1a640f8146101fd578163f2fde38b1461016a575063f7e0cf2414610149575f80fd5b346101665781600319360112610166576020906002549051908152f35b5080fd5b919050346101f95760203660031901126101f9576001600160a01b038235818116939192908490036101f55761019e6109d9565b83156101df57505082546001600160a01b0319811683178455167f8be0079c531659141344cd1fd0a4f28419497f9722a3daafe3b4186f6b6457e08380a380f35b51631e4fbdf760e01b8152908101849052602490fd5b8480fd5b8280fd5b5050346101665781600319360112610166576020905160088152f35b919050346101f95760203660031901126101f9578135916102386109d9565b61024a60ff60065460a01c1615610b6f565b610252610c83565b61025a610ca3565b610265831515610bd2565b61027664e8d4a51000841115610c37565b6103e861028584600254610d8d565b116102c3575060207f945c1c4e99aa89f648fbfe3df471b916f719e16d960fcec0737d4d56bd69683891836002554260035551428152a26001805580f35b6020608492519162461bcd60e51b8352820152602760248201527f476f6c6450726963654f7261636c653a205072696365206368616e676520746f6044820152666f206c6172676560c81b6064820152fd5b50503461016657816003193601126101665760209060ff60065460a01c1690519015158152f35b8390346101665760203660031901126101665780356001600160a01b038116908190036101f95761036b6109d9565b600680546001600160a01b03191682179055610385575080f35b805460ff19169055610395610cc6565b80f35b5050346101665781600319360112610166576020906003549051908152f35b9050346101f95760203660031901126101f95735908115158092036101f9577fcbe1b789cda412d9e1c647ed03d0c71e2f71484be36f9ca2b2a346b29edf1b70916020916104036109d9565b6006805460ff60a01b191660a084901b60ff60a01b1617905551908152a180f35b50503461016657816003193601126101665760065490516001600160a01b039091168152602090f35b8284346104705780600319360112610470575060ff602092541690519015158152f35b80fd5b5050346101665781600319360112610166576020906005549051908152f35b5050346101665781600319360112610166576020905161012c8152f35b505034610166578160031936011261016657905490516001600160a01b039091168152602090f35b50503461016657816003193601126101665760207f62e78cea01bee320cd4e420270b5ea74000d11b0c9f74754ebdbfc544b05a258916105156109d9565b61051d610c83565b835460ff60a01b1916600160a01b17845551338152a180f35b833461047057806003193601126104705761054f6109d9565b80546001600160a01b03198116825581906001600160a01b03167f8be0079c531659141344cd1fd0a4f28419497f9722a3daafe3b4186f6b6457e08280a380f35b50503461016657816003193601126101665760ff6020925460a01c1690519015158152f35b8284346104705780600319360112610470575060025460035482519182526020820152f35b90508234610470576020366003190112610470578135918215610656576002546402540be40080820291808304821481151715610643578502029384040361063057602083670de0b6b3a7640000865191048152f35b634e487b7160e01b825260119052602490fd5b634e487b7160e01b855260118452602485fd5b608490602085519162461bcd60e51b8352820152603560248201527f476f6c6450726963654f7261636c653a20504f4920616d6f756e74206d7573746044820152742062652067726561746572207468616e207a65726f60581b6064820152fd5b828434610470576020366003190112610470578235801561072857600254916402540be4009283810293818504149015171561071557670de0b6b3a7640000808302928304036107155760208461070e8585610aa3565b9051908152f35b634e487b7160e01b815260118552602490fd5b825162461bcd60e51b8152602081860152603560248201527f476f6c6450726963654f7261636c653a2055534420616d6f756e74206d7573746044820152742062652067726561746572207468616e207a65726f60581b6064820152608490fd5b9050346101f957826003193601126101f9576107a36109d9565b82549060ff8260a01c16156107e9575060ff60a01b19168255513381527f5db9ee0a495bf2e6ff9c91a7834c1ba4fdd244a5e8aa4e537bd38aeae4b073aa90602090a180f35b8251638dfc202b60e01b8152fd5b50503461016657816003193601126101665760209061070e60035442610d80565b50503461016657816003193601126101665760209061012c61083c60035442610d80565b119051908152f35b8390346101665760203660031901126101665780358015158091036101f95761086b6109d9565b60ff8019835416911617905580f35b505034610166578160031936011261016657602090516103e88152f35b919050346101f95760203660031901126101f95760ff8235926108b86109d9565b6108c3841515610bd2565b6108d464e8d4a51000851115610c37565b8360055554166108e2578280f35b60207f945c1c4e99aa89f648fbfe3df471b916f719e16d960fcec0737d4d56bd69683891836002554260035551428152a25f808280f35b50503461016657816003193601126101665760209061070e610a04565b919050346101f957826003193601126101f95761095b60ff60065460a01c1615610b6f565b610963610c83565b61096b610ca3565b60ff825416610984578261097d610cc6565b6001805580f35b906020608492519162461bcd60e51b8352820152602960248201527f476f6c6450726963654f7261636c653a204e6f74207573696e6720436861696e6044820152681b1a5b9ac81999595960ba1b6064820152fd5b5f546001600160a01b031633036109ec57565b60405163118cdaa760e01b8152336004820152602490fd5b60045460ff1615610a155760025490565b610a1d610ac1565b90565b90601f8019910116810190811067ffffffffffffffff821117610a4257604052565b634e487b7160e01b5f52604160045260245ffd5b519069ffffffffffffffffffff82168203610a6d57565b5f80fd5b908160a0910312610a6d57610a8581610a56565b91602082015191604081015191610a1d608060608401519301610a56565b8115610aad570490565b634e487b7160e01b5f52601260045260245ffd5b6006546001600160a01b03168015610b685760a060049160405192838092633fabe5a360e21b82525afa5f9181610b33575b50610aff575060025490565b6305f5e10090818102918183041490151715610b1f5763b96423a0900490565b634e487b7160e01b5f52601160045260245ffd5b610b5591925060a03d8111610b61575b610b4d8183610a20565b810190610a71565b5050509050905f610af3565b503d610b43565b5060025490565b15610b7657565b60405162461bcd60e51b815260206004820152602e60248201527f476f6c6450726963654f7261636c653a20436f6e747261637420697320656d6560448201526d1c99d95b98de481cdd1bdc1c195960921b6064820152608490fd5b15610bd957565b60405162461bcd60e51b815260206004820152603060248201527f476f6c6450726963654f7261636c653a205072696365206d757374206265206760448201526f726561746572207468616e207a65726f60801b6064820152608490fd5b15610c3e57565b60405162461bcd60e51b815260206004820152601f60248201527f476f6c6450726963654f7261636c653a20507269636520746f6f2068696768006044820152606490fd5b60ff5f5460a01c16610c9157565b60405163d93c066560e01b8152600490fd5b600260015414610cb4576002600155565b604051633ee5aeb560e01b8152600490fd5b6006546001600160a01b03168015610d7d5760a060049160405192838092633fabe5a360e21b82525afa90815f918293610d56575b50610d04575050565b6305f5e10090818102918183041490151715610b1f57602063b96423a07f945c1c4e99aa89f648fbfe3df471b916f719e16d960fcec0737d4d56bd6968389204928360025580600355604051908152a2565b909250610d71915060a03d8111610b6157610b4d8183610a20565b5092505090915f610cfb565b50565b91908203918211610b1f57565b908115610dd5578180821115610dc557610da691610d80565b905b61271091828102928184041490151715610b1f57610a1d91610aa3565b90610dcf91610d80565b90610da8565b50505f9056fea2646970667358221220ade7d0a95bcab4a4a6a6f502c36dd2f506f41b310c0fa50cdaa7d7bb6618f4ca64736f6c63430008140033945c1c4e99aa89f648fbfe3df471b916f719e16d960fcec0737d4d56bd696838","linkReferences":{}},"methodIdentifiers":{"MAX_PRICE_CHANGE()":"2084bf9f","PRICE_DECIMALS()":"f1a640f8","UPDATE_THRESHOLD()":"99f91f4f","convertPoiToUsd(uint256)":"55b756b7","convertUsdToPoi(uint256)":"40814f21","emergencyStopped()":"e2749c96","getGoldPricePerGram()":"156ba6fe","getGoldPriceWithTimestamp()":"5adab99b","getTimeSinceLastUpdate()":"32c4ef2c","goldPriceFeed()":"c422f9d0","goldPricePerGram()":"f7e0cf24","isPriceStale()":"2f5df725","lastUpdated()":"d0b06f5d","mockPricePerGram()":"b6c09828","owner()":"8da5cb5b","pause()":"8456cb59","paused()":"5c975abb","renounceOwnership()":"715018a6","setEmergencyStop(bool)":"c73d7c7b","setGoldPriceFeed(address)":"dc24785e","setMockPriceMode(bool)":"29d3006a","transferOwnership(address)":"f2fde38b","unpause()":"3f4ba83a","updateGoldPrice(uint256)":"eebc56f1","updateMockPrice(uint256)":"19af783e","updatePriceFromChainlink()":"108b1131","useMockPrice()":"b933efe3"},"id":29}