{"abi":[{"type":"constructor","inputs":[{"name":"_lzEndpoint","type":"address","internalType":"address"},{"name":"_chainlinkFeed","type":"address","internalType":"address"},{"name":"_fallbackOracle","type":"address","internalType":"address"}],"stateMutability":"nonpayable"},{"type":"function","name":"ETHEREUM_EID","inputs":[],"outputs":[{"name":"","type":"uint32","internalType":"uint32"}],"stateMutability":"view"},{"type":"function","name":"OUNCE_TO_GRAM","inputs":[],"outputs":[{"name":"","type":"uint256","internalType":"uint256"}],"stateMutability":"view"},{"type":"function","name":"ROOTSTOCK_EID","inputs":[],"outputs":[{"name":"","type":"uint32","internalType":"uint32"}],"stateMutability":"view"},{"type":"function","name":"STALE_THRESHOLD","inputs":[],"outputs":[{"name":"","type":"uint256","internalType":"uint256"}],"stateMutability":"view"},{"type":"function","name":"chainlinkFeed","inputs":[],"outputs":[{"name":"","type":"address","internalType":"contract IAggregatorV3Interface"}],"stateMutability":"view"},{"type":"function","name":"fallbackOracle","inputs":[],"outputs":[{"name":"","type":"address","internalType":"address"}],"stateMutability":"view"},{"type":"function","name":"fetchPriceFromChainlink","inputs":[],"outputs":[{"name":"price","type":"int256","internalType":"int256"}],"stateMutability":"view"},{"type":"function","name":"getGoldPrice","inputs":[],"outputs":[{"name":"price","type":"int256","internalType":"int256"}],"stateMutability":"view"},{"type":"function","name":"getGoldPricePerGram","inputs":[],"outputs":[{"name":"price","type":"uint256","internalType":"uint256"}],"stateMutability":"view"},{"type":"function","name":"getPriceWithTimestamp","inputs":[],"outputs":[{"name":"price","type":"int256","internalType":"int256"},{"name":"timestamp","type":"uint256","internalType":"uint256"}],"stateMutability":"view"},{"type":"function","name":"isPriceStale","inputs":[],"outputs":[{"name":"isStale","type":"bool","internalType":"bool"}],"stateMutability":"view"},{"type":"function","name":"lastPrice","inputs":[],"outputs":[{"name":"","type":"int256","internalType":"int256"}],"stateMutability":"view"},{"type":"function","name":"lastUpdated","inputs":[],"outputs":[{"name":"","type":"uint256","internalType":"uint256"}],"stateMutability":"view"},{"type":"function","name":"lzEndpoint","inputs":[],"outputs":[{"name":"","type":"address","internalType":"contract ILayerZeroEndpointV2"}],"stateMutability":"view"},{"type":"function","name":"owner","inputs":[],"outputs":[{"name":"","type":"address","internalType":"address"}],"stateMutability":"view"},{"type":"function","name":"renounceOwnership","inputs":[],"outputs":[],"stateMutability":"nonpayable"},{"type":"function","name":"setChainlinkFeed","inputs":[{"name":"_newFeed","type":"address","internalType":"address"}],"outputs":[],"stateMutability":"nonpayable"},{"type":"function","name":"setEndpoint","inputs":[{"name":"_newEndpoint","type":"address","internalType":"address"}],"outputs":[],"stateMutability":"nonpayable"},{"type":"function","name":"setFallbackOracle","inputs":[{"name":"_newOracle","type":"address","internalType":"address"}],"outputs":[],"stateMutability":"nonpayable"},{"type":"function","name":"setManualPrice","inputs":[{"name":"_price","type":"int256","internalType":"int256"}],"outputs":[],"stateMutability":"nonpayable"},{"type":"function","name":"transferOwnership","inputs":[{"name":"newOwner","type":"address","internalType":"address"}],"outputs":[],"stateMutability":"nonpayable"},{"type":"function","name":"updatePrice","inputs":[],"outputs":[{"name":"success","type":"bool","internalType":"bool"}],"stateMutability":"nonpayable"},{"type":"event","name":"ChainlinkFeedUpdated","inputs":[{"name":"newFeed","type":"address","indexed":true,"internalType":"address"}],"anonymous":false},{"type":"event","name":"EndpointUpdated","inputs":[{"name":"newEndpoint","type":"address","indexed":true,"internalType":"address"}],"anonymous":false},{"type":"event","name":"FallbackOracleUpdated","inputs":[{"name":"newOracle","type":"address","indexed":true,"internalType":"address"}],"anonymous":false},{"type":"event","name":"OwnershipTransferred","inputs":[{"name":"previousOwner","type":"address","indexed":true,"internalType":"address"},{"name":"newOwner","type":"address","indexed":true,"internalType":"address"}],"anonymous":false},{"type":"event","name":"PriceFetched","inputs":[{"name":"price","type":"int256","indexed":false,"internalType":"int256"},{"name":"timestamp","type":"uint256","indexed":false,"internalType":"uint256"}],"anonymous":false},{"type":"error","name":"OwnableInvalidOwner","inputs":[{"name":"owner","type":"address","internalType":"address"}]},{"type":"error","name":"OwnableUnauthorizedAccount","inputs":[{"name":"account","type":"address","internalType":"address"}]}],"bytecode":{"object":"0x60803461015157601f610c2f38819003918201601f19168301916001600160401b03831184841017610155578084926060946040528339810103126101515761004781610169565b90610060604061005960208401610169565b9201610169565b3315610139575f5460018060a01b03199333858316175f556040519160018060a01b03948591823391167f8be0079c531659141344cd1fd0a4f28419497f9722a3daafe3b4186f6b6457e05f80a3169182156100e45750831684600154161760015583600254161760025516906003541617600355604051610ab1908161017e8239f35b62461bcd60e51b815260206004820152602a60248201527f476f6c645265616465723a20496e76616c696420636861696e6c696e6b2066656044820152696564206164647265737360b01b6064820152608490fd5b604051631e4fbdf760e01b81525f6004820152602490fd5b5f80fd5b634e487b7160e01b5f52604160045260245ffd5b51906001600160a01b03821682036101515756fe6080604081815260049081361015610015575f80fd5b5f92833560e01c908163053f14da1461089657508063156ba6fe14610837578063170aee73146107d05780632d6a3ded146107b35780632f5df7251461078d5780634dc85492146107715780635bdddcd0146107545780635f78445d146106f5578063629838e5146106cc578063673a7e281461061e578063715018a6146105c457806375568225146104215780637dbdf1f5146103f85780638da5cb5b146103d05780638ea121a31461031c578063b353aaa7146102f3578063c3c53027146102d4578063d0b06f5d146102b5578063da6bae101461028d578063dbbb4155146101c9578063e7dd43d2146101a35763f2fde38b14610113575f80fd5b3461019f57602036600319011261019f576001600160a01b0382358181169391929084900361019b576101446108b2565b831561018557505082546001600160a01b0319811683178455167f8be0079c531659141344cd1fd0a4f28419497f9722a3daafe3b4186f6b6457e08380a380f35b51631e4fbdf760e01b8152908101849052602490fd5b8480fd5b8280fd5b5091346101c657806003193601126101c657505460055482519182526020820152f35b80fd5b50903461019f57602036600319011261019f5780356001600160a01b0381169290839003610289576101f96108b2565b821561023a575050600180546001600160a01b031916821790557ffbf944e82135f40e35842ccfa29dab42b6ec33f81d6e8df4bdcb7dab0fe72e0c8280a280f35b906020608492519162461bcd60e51b83528201526024808201527f476f6c645265616465723a20496e76616c696420656e64706f696e74206164646044820152637265737360e01b6064820152fd5b8380fd5b8382346102b157816003193601126102b1576020906102aa610913565b9051908152f35b5080fd5b8382346102b157816003193601126102b1576020906005549051908152f35b8382346102b157816003193601126102b1576020905163b96423a08152f35b8382346102b157816003193601126102b15760015490516001600160a01b039091168152602090f35b50903461019f57602036600319011261019f5780356001600160a01b03811692908390036102895761034c6108b2565b821561038d575050600280546001600160a01b031916821790557f1eb3fbc69716964d9c6d08761d12f18acac1d434fd0a110c7a97d5c9a5e1b3028280a280f35b906020606492519162461bcd60e51b8352820152602060248201527f476f6c645265616465723a20496e76616c6964206665656420616464726573736044820152fd5b8382346102b157816003193601126102b157905490516001600160a01b039091168152602090f35b8382346102b157816003193601126102b15760025490516001600160a01b039091168152602090f35b508290346102b157816003193601126102b15780519160209384840190633fabe5a360e21b825280855283850167ffffffffffffffff92868210848311176105b157908481601f9594938189528160848b60018060a01b039384600154169460025416639194367f60e01b85526001604484015260648301526060838301526104b7825180928160a486015260c48501906109c0565b8a199a018a1681010301915afa9687156105a7578597610508575b505050505060a0838051810103126101c657506104f08383016109e1565b5061050160a08284015193016109e1565b5051908152f35b909192939496503d8088843e61051e81846108dd565b81019188828885019403126105a35751908482116105a357019181605f8401121561059f578583015193841161058c575061056287865195601f86011601856108dd565b8284526060838301011161019b579061058191606087850191016109c0565b9184808080806104d2565b634e487b7160e01b875260419052602486fd5b8680fd5b8780fd5b86513d87823e3d90fd5b634e487b7160e01b855260418352602485fd5b83346101c657806003193601126101c6576105dd6108b2565b80546001600160a01b03198116825581906001600160a01b03167f8be0079c531659141344cd1fd0a4f28419497f9722a3daafe3b4186f6b6457e08280a380f35b5082346101c657806003193601126101c657610638610913565b9081131561067e5781817f33ce11880e0d7f1b091db2af50e4af5cf3497088a42c6796a06f0e346bb4356692602095554260055581519081524285820152a15160018152f35b815162461bcd60e51b8152602081850152602260248201527f476f6c645265616465723a20496e76616c696420707269636520726563656976604482015261195960f21b6064820152608490fd5b8382346102b157816003193601126102b15760035490516001600160a01b039091168152602090f35b503461019f57602036600319011261019f57817f33ce11880e0d7f1b091db2af50e4af5cf3497088a42c6796a06f0e346bb43566923580916107356108b2565b6107408683136109fc565b55426005558151908152426020820152a180f35b8382346102b157816003193601126102b15760209051610e108152f35b8382346102b157816003193601126102b1576020905160018152f35b8382346102b157816003193601126102b1576020906107aa610a48565b90519015158152f35b8382346102b157816003193601126102b1576020905161025f8152f35b5050346102b15760203660031901126102b157356001600160a01b038116908190036102b1576107fe6108b2565b600380546001600160a01b031916821790557fce7a780d33665b1ea097af5f155e3821b809ecbaa839d3b33aa83ba28168cefb8280a280f35b5091346101c657806003193601126101c657610851610913565b9161085d8284136109fc565b6305f5e100928381029381850414901517156108835760208363b96423a0865191048152f35b634e487b7160e01b825260119052602490fd5b8490843461019f578260031936011261019f5760209250548152f35b5f546001600160a01b031633036108c557565b60405163118cdaa760e01b8152336004820152602490fd5b90601f8019910116810190811067ffffffffffffffff8211176108ff57604052565b634e487b7160e01b5f52604160045260245ffd5b604051637556822560e01b8152602081600481305afa5f918161098d575b5061098a5750600554156109455760045490565b60405162461bcd60e51b815260206004820152601e60248201527f476f6c645265616465723a204e6f20707269636520617661696c61626c6500006044820152606490fd5b90565b90916020823d82116109b8575b816109a7602093836108dd565b810103126101c6575051905f610931565b3d915061099a565b5f5b8381106109d15750505f910152565b81810151838201526020016109c2565b519069ffffffffffffffffffff821682036109f857565b5f80fd5b15610a0357565b60405162461bcd60e51b815260206004820152601960248201527f476f6c645265616465723a20496e76616c6964207072696365000000000000006044820152606490fd5b6005548015610a75574203428111610a6157610e101090565b634e487b7160e01b5f52601160045260245ffd5b5060019056fea2646970667358221220dadfe1002e49dcd336422257be32b4e0c7bbb209aec1847762c7d2c95009fdec64736f6c63430008140033","linkReferences":{}},"methodIdentifiers":{"ETHEREUM_EID()":"4dc85492","OUNCE_TO_GRAM()":"c3c53027","ROOTSTOCK_EID()":"2d6a3ded","STALE_THRESHOLD()":"5bdddcd0","chainlinkFeed()":"7dbdf1f5","fallbackOracle()":"629838e5","fetchPriceFromChainlink()":"75568225","getGoldPrice()":"da6bae10","getGoldPricePerGram()":"156ba6fe","getPriceWithTimestamp()":"e7dd43d2","isPriceStale()":"2f5df725","lastPrice()":"053f14da","lastUpdated()":"d0b06f5d","lzEndpoint()":"b353aaa7","owner()":"8da5cb5b","renounceOwnership()":"715018a6","setChainlinkFeed(address)":"8ea121a3","setEndpoint(address)":"dbbb4155","setFallbackOracle(address)":"170aee73","setManualPrice(int256)":"5f78445d","transferOwnership(address)":"f2fde38b","updatePrice()":"673a7e28"},"id":31}