{"abi":[{"type":"constructor","inputs":[{"name":"_manager","type":"address","internalType":"address"}],"stateMutability":"nonpayable"},{"type":"function","name":"DECIMALS","inputs":[],"outputs":[{"name":"","type":"uint256","internalType":"uint256"}],"stateMutability":"view"},{"type":"function","name":"INITIAL_SUPPLY","inputs":[],"outputs":[{"name":"","type":"uint256","internalType":"uint256"}],"stateMutability":"view"},{"type":"function","name":"allowance","inputs":[{"name":"owner","type":"address","internalType":"address"},{"name":"spender","type":"address","internalType":"address"}],"outputs":[{"name":"","type":"uint256","internalType":"uint256"}],"stateMutability":"view"},{"type":"function","name":"approve","inputs":[{"name":"spender","type":"address","internalType":"address"},{"name":"value","type":"uint256","internalType":"uint256"}],"outputs":[{"name":"","type":"bool","internalType":"bool"}],"stateMutability":"nonpayable"},{"type":"function","name":"balanceOf","inputs":[{"name":"account","type":"address","internalType":"address"}],"outputs":[{"name":"","type":"uint256","internalType":"uint256"}],"stateMutability":"view"},{"type":"function","name":"burn","inputs":[{"name":"from","type":"address","internalType":"address"},{"name":"amount","type":"uint256","internalType":"uint256"},{"name":"goldPrice","type":"uint256","internalType":"uint256"}],"outputs":[],"stateMutability":"nonpayable"},{"type":"function","name":"decimals","inputs":[],"outputs":[{"name":"","type":"uint8","internalType":"uint8"}],"stateMutability":"pure"},{"type":"function","name":"emergencyStopped","inputs":[],"outputs":[{"name":"","type":"bool","internalType":"bool"}],"stateMutability":"view"},{"type":"function","name":"getManager","inputs":[],"outputs":[{"name":"","type":"address","internalType":"address"}],"stateMutability":"view"},{"type":"function","name":"isEmergencyStopped","inputs":[],"outputs":[{"name":"","type":"bool","internalType":"bool"}],"stateMutability":"view"},{"type":"function","name":"manager","inputs":[],"outputs":[{"name":"","type":"address","internalType":"address"}],"stateMutability":"view"},{"type":"function","name":"mint","inputs":[{"name":"to","type":"address","internalType":"address"},{"name":"amount","type":"uint256","internalType":"uint256"},{"name":"goldPrice","type":"uint256","internalType":"uint256"}],"outputs":[],"stateMutability":"nonpayable"},{"type":"function","name":"name","inputs":[],"outputs":[{"name":"","type":"string","internalType":"string"}],"stateMutability":"view"},{"type":"function","name":"owner","inputs":[],"outputs":[{"name":"","type":"address","internalType":"address"}],"stateMutability":"view"},{"type":"function","name":"pause","inputs":[],"outputs":[],"stateMutability":"nonpayable"},{"type":"function","name":"paused","inputs":[],"outputs":[{"name":"","type":"bool","internalType":"bool"}],"stateMutability":"view"},{"type":"function","name":"renounceOwnership","inputs":[],"outputs":[],"stateMutability":"nonpayable"},{"type":"function","name":"setEmergencyStop","inputs":[{"name":"stopped","type":"bool","internalType":"bool"}],"outputs":[],"stateMutability":"nonpayable"},{"type":"function","name":"symbol","inputs":[],"outputs":[{"name":"","type":"string","internalType":"string"}],"stateMutability":"view"},{"type":"function","name":"totalSupply","inputs":[],"outputs":[{"name":"","type":"uint256","internalType":"uint256"}],"stateMutability":"view"},{"type":"function","name":"transfer","inputs":[{"name":"to","type":"address","internalType":"address"},{"name":"value","type":"uint256","internalType":"uint256"}],"outputs":[{"name":"","type":"bool","internalType":"bool"}],"stateMutability":"nonpayable"},{"type":"function","name":"transferFrom","inputs":[{"name":"from","type":"address","internalType":"address"},{"name":"to","type":"address","internalType":"address"},{"name":"value","type":"uint256","internalType":"uint256"}],"outputs":[{"name":"","type":"bool","internalType":"bool"}],"stateMutability":"nonpayable"},{"type":"function","name":"transferOwnership","inputs":[{"name":"newOwner","type":"address","internalType":"address"}],"outputs":[],"stateMutability":"nonpayable"},{"type":"function","name":"unpause","inputs":[],"outputs":[],"stateMutability":"nonpayable"},{"type":"function","name":"updateManager","inputs":[{"name":"_manager","type":"address","internalType":"address"}],"outputs":[],"stateMutability":"nonpayable"},{"type":"event","name":"Approval","inputs":[{"name":"owner","type":"address","indexed":true,"internalType":"address"},{"name":"spender","type":"address","indexed":true,"internalType":"address"},{"name":"value","type":"uint256","indexed":false,"internalType":"uint256"}],"anonymous":false},{"type":"event","name":"EmergencyStop","inputs":[{"name":"stopped","type":"bool","indexed":false,"internalType":"bool"}],"anonymous":false},{"type":"event","name":"OwnershipTransferred","inputs":[{"name":"previousOwner","type":"address","indexed":true,"internalType":"address"},{"name":"newOwner","type":"address","indexed":true,"internalType":"address"}],"anonymous":false},{"type":"event","name":"Paused","inputs":[{"name":"account","type":"address","indexed":false,"internalType":"address"}],"anonymous":false},{"type":"event","name":"TokensBurned","inputs":[{"name":"from","type":"address","indexed":true,"internalType":"address"},{"name":"amount","type":"uint256","indexed":false,"internalType":"uint256"},{"name":"goldPrice","type":"uint256","indexed":false,"internalType":"uint256"}],"anonymous":false},{"type":"event","name":"TokensMinted","inputs":[{"name":"to","type":"address","indexed":true,"internalType":"address"},{"name":"amount","type":"uint256","indexed":false,"internalType":"uint256"},{"name":"goldPrice","type":"uint256","indexed":false,"internalType":"uint256"}],"anonymous":false},{"type":"event","name":"Transfer","inputs":[{"name":"from","type":"address","indexed":true,"internalType":"address"},{"name":"to","type":"address","indexed":true,"internalType":"address"},{"name":"value","type":"uint256","indexed":false,"internalType":"uint256"}],"anonymous":false},{"type":"event","name":"Unpaused","inputs":[{"name":"account","type":"address","indexed":false,"internalType":"address"}],"anonymous":false},{"type":"error","name":"ERC20InsufficientAllowance","inputs":[{"name":"spender","type":"address","internalType":"address"},{"name":"allowance","type":"uint256","internalType":"uint256"},{"name":"needed","type":"uint256","internalType":"uint256"}]},{"type":"error","name":"ERC20InsufficientBalance","inputs":[{"name":"sender","type":"address","internalType":"address"},{"name":"balance","type":"uint256","internalType":"uint256"},{"name":"needed","type":"uint256","internalType":"uint256"}]},{"type":"error","name":"ERC20InvalidApprover","inputs":[{"name":"approver","type":"address","internalType":"address"}]},{"type":"error","name":"ERC20InvalidReceiver","inputs":[{"name":"receiver","type":"address","internalType":"address"}]},{"type":"error","name":"ERC20InvalidSender","inputs":[{"name":"sender","type":"address","internalType":"address"}]},{"type":"error","name":"ERC20InvalidSpender","inputs":[{"name":"spender","type":"address","internalType":"address"}]},{"type":"error","name":"EnforcedPause","inputs":[]},{"type":"error","name":"ExpectedPause","inputs":[]},{"type":"error","name":"OwnableInvalidOwner","inputs":[{"name":"owner","type":"address","internalType":"address"}]},{"type":"error","name":"OwnableUnauthorizedAccount","inputs":[{"name":"account","type":"address","internalType":"address"}]},{"type":"error","name":"ReentrancyGuardReentrantCall","inputs":[]}],"bytecode":{"object":"0x6080346200040057601f90601f19906001600160401b0390620013d33881900385810185168301848111848210176200030f578392829160405283396020928391810103126200040057516001600160a01b03808216959093909186900362000400576200006c62000404565b916006835265504f49504f4960d01b848401526200008962000404565b9060039182815262504f4960e81b8682015284518481116200030f5783546001968782811c92168015620003f5575b89831014620003e15781858493116200038e575b5088908583116001146200032f575f9262000323575b50505f1982861b1c191690861b1783555b80519384116200030f5760049788548681811c9116801562000304575b88821014620002f15790818487969594931162000298575b50879285116001146200023457505f9362000228575b505082841b925f19911b1c19161784555b3315620002115760058054336001600160a01b03198216811790925560405194167f8be0079c531659141344cd1fd0a4f28419497f9722a3daafe3b4186f6b6457e05f80a3600655600754928415620001c3575050506001600160a81b03191617600755604051610fae9081620004258239f35b62461bcd60e51b8352820152602660248201527f504f49504f493a204d616e6167657220616464726573732063616e6e6f74206260448201526565207a65726f60d01b606482015260849150fd5b604051631e4fbdf760e01b81525f81860152602490fd5b015191505f806200013e565b8695939291931692895f52875f20935f5b8982821062000281575050851162000267575b50505050811b0184556200014f565b01519060f8845f19921b161c191690555f80808062000258565b838501518755899890960195938401930162000245565b909192939450895f52875f208480880160051c8201928a8910620002e7575b918991899897969594930160051c01915b828110620002d857505062000128565b5f8155889750899101620002c8565b92508192620002b7565b60228a634e487b7160e01b5f525260245ffd5b90607f169062000110565b634e487b7160e01b5f52604160045260245ffd5b015190505f80620000e2565b908b89941691875f528a5f20925f5b8c8282106200037757505084116200035f575b505050811b018355620000f3565b01515f1983881b60f8161c191690555f808062000351565b8385015186558c979095019493840193016200033e565b909150855f52885f208580850160051c8201928b8610620003d7575b918a91869594930160051c01915b828110620003c8575050620000cc565b5f81558594508a9101620003b8565b92508192620003aa565b634e487b7160e01b5f52602260045260245ffd5b91607f1691620000b8565b5f80fd5b60408051919082016001600160401b038111838210176200030f5760405256fe6080604081815260049182361015610015575f80fd5b5f92833560e01c91826306fdde0314610b9d57508163095ea7b314610af3578163156e29f6146109b857816318160ddd1461099957816323b872dd146108a65781632e0f26251461086f5781632ff2e9dc1461088b578163313ce5671461086f5781633f4ba83a146107ff578163481c6a751461042f57816358aba00f1461075d5781635c975abb1461073657816370a08231146106ff578163715018a61461069f5781638456cb591461063e5781638da5cb5b1461061557816395d89b41146104f6578163a9059cbb146104c5578163c73d7c7b14610458578163d50095841461042f578163dd62ed3e146103e6578163e2749c96146103bf578163f2fde38b1461032f578163f5298aca1461015e575063fddd483714610135575f80fd5b3461015a578160031936011261015a5760209060ff60075460a01c1690519015158152f35b5080fd5b9190503461032b5761016f36610cec565b909160075461019860ff60018060a01b039261018e8482163314610e1d565b60a01c1615610e7d565b6101a0610f34565b6101a8610f55565b81169485156102da576101bc841515610ed7565b85875260209187835284868920541061028c57868852878352858820549185831061025857505090837fccbea4088a3b7ae9ca2d15fab9a9742a4075b4d7247768a1eecea917565aba00959493928789528883520384882055826002540360025586867fddf252ad1be2c89b69c2b068fc378daa952ba7f163c4a11628f55a4df523b3ef838751878152a38351928352820152a2600160065580f35b865163391434e360e21b81526001600160a01b03909216908201908152602081018390526040810186905281906060010390fd5b5060849185519162461bcd60e51b83528201526024808201527f504f49504f493a20496e73756666696369656e742062616c616e636520746f20604482015263313ab93760e11b6064820152fd5b608490602086519162461bcd60e51b8352820152602560248201527f504f49504f493a2043616e6e6f74206275726e2066726f6d207a65726f206164604482015264647265737360d81b6064820152fd5b8280fd5b90503461032b57602036600319011261032b5761034a610cbc565b90610353610d16565b6001600160a01b039182169283156103a9575050600554826bffffffffffffffffffffffff60a01b821617600555167f8be0079c531659141344cd1fd0a4f28419497f9722a3daafe3b4186f6b6457e08380a380f35b51631e4fbdf760e01b8152908101849052602490fd5b50503461015a578160031936011261015a5760209060ff60075460a01c1690519015158152f35b50503461015a578060031936011261015a5780602092610404610cbc565b61040c610cd6565b6001600160a01b0391821683526001865283832091168252845220549051908152f35b50503461015a578160031936011261015a5760075490516001600160a01b039091168152602090f35b90503461032b57602036600319011261032b57359081151580920361032b577fcbe1b789cda412d9e1c647ed03d0c71e2f71484be36f9ca2b2a346b29edf1b70916020916104a4610d16565b6007805460ff60a01b191660a084901b60ff60a01b1617905551908152a180f35b50503461015a578060031936011261015a576020906104ef6104e5610cbc565b6024359033610d42565b5160018152f35b83833461015a578160031936011261015a57805190828454600181811c9080831692831561060b575b60209384841081146105f8578388529081156105dc5750600114610587575b505050829003601f01601f191682019267ffffffffffffffff8411838510176105745750829182610570925282610c75565b0390f35b634e487b7160e01b815260418552602490fd5b8787529192508591837f8a35acfbc15ff81a39ae7d344fd709f28e8600b4aa8c65c6b64bfe7fe36bd19b5b8385106105c8575050505083010185808061053e565b8054888601830152930192849082016105b2565b60ff1916878501525050151560051b840101905085808061053e565b634e487b7160e01b895260228a52602489fd5b91607f169161051f565b50503461015a578160031936011261015a5760055490516001600160a01b039091168152602090f35b50503461015a578160031936011261015a5760207f62e78cea01bee320cd4e420270b5ea74000d11b0c9f74754ebdbfc544b05a2589161067c610d16565b610684610f34565b6005805460ff60a01b1916600160a01b17905551338152a180f35b83346106fc57806003193601126106fc576106b8610d16565b600580546001600160a01b0319811690915581906001600160a01b03167f8be0079c531659141344cd1fd0a4f28419497f9722a3daafe3b4186f6b6457e08280a380f35b80fd5b50503461015a57602036600319011261015a5760209181906001600160a01b03610727610cbc565b16815280845220549051908152f35b50503461015a578160031936011261015a5760209060ff60055460a01c1690519015158152f35b90503461032b57602036600319011261032b57610778610cbc565b610780610d16565b6001600160a01b03169182156107ad5750506bffffffffffffffffffffffff60a01b600754161760075580f35b906020608492519162461bcd60e51b8352820152602660248201527f504f49504f493a204d616e6167657220616464726573732063616e6e6f74206260448201526565207a65726f60d01b6064820152fd5b90503461032b578260031936011261032b57610819610d16565b6005549060ff8260a01c1615610861575060ff60a01b1916600555513381527f5db9ee0a495bf2e6ff9c91a7834c1ba4fdd244a5e8aa4e537bd38aeae4b073aa90602090a180f35b8251638dfc202b60e01b8152fd5b50503461015a578160031936011261015a576020905160128152f35b50503461015a578160031936011261015a5751908152602090f35b905082346106fc5760603660031901126106fc576108c2610cbc565b6108ca610cd6565b916044359360018060a01b038316808352600160205286832033845260205286832054915f198310610905575b6020886104ef898989610d42565b86831061096d57811561095657331561093f575082526001602090815286832033845281529186902090859003905582906104ef876108f7565b8751634a1406b160e11b8152908101849052602490fd5b875163e602df0560e01b8152908101849052602490fd5b8751637dc7a0d960e11b8152339181019182526020820193909352604081018790528291506060010390fd5b50503461015a578160031936011261015a576020906002549051908152f35b83833461015a576109c836610cec565b6007549093926001600160a01b03916109eb9060ff9061018e3386831614610e1d565b6109f3610f34565b6109fb610f55565b16928315610aa457610a0e821515610ed7565b600254828101809111610a91577f2e8ac5177a616f2aec08c3048f5021e4e9743ece034e8d83ba5caf76688bb475949596506002558486528560205282862082815401905584867fddf252ad1be2c89b69c2b068fc378daa952ba7f163c4a11628f55a4df523b3ef60208651868152a382519182526020820152a2600160065580f35b634e487b7160e01b865260118752602486fd5b825162461bcd60e51b8152602081880152602360248201527f504f49504f493a2043616e6e6f74206d696e7420746f207a65726f206164647260448201526265737360e81b6064820152608490fd5b90503461032b578160031936011261032b57610b0d610cbc565b602435903315610b86576001600160a01b0316918215610b6f57508083602095338152600187528181208582528752205582519081527f8c5be1e5ebec7d5bd14f71427d1e84f3dd0314c0f7b2291e5b200ac8c7c3b925843392a35160018152f35b8351634a1406b160e11b8152908101859052602490fd5b835163e602df0560e01b8152808401869052602490fd5b8490843461032b578260031936011261032b5782600354600181811c90808316928315610c6b575b60209384841081146105f8578388529081156105dc5750600114610c1557505050829003601f01601f191682019267ffffffffffffffff8411838510176105745750829182610570925282610c75565b600387529192508591837fc2575a0e9e593c00f959f8c92f12db2869c3395a3b0502d05e2516446f71f85b5b838510610c57575050505083010185808061053e565b805488860183015293019284908201610c41565b91607f1691610bc5565b602080825282518183018190529093925f5b828110610ca857505060409293505f838284010152601f8019910116010190565b818101860151848201604001528501610c87565b600435906001600160a01b0382168203610cd257565b5f80fd5b602435906001600160a01b0382168203610cd257565b6060906003190112610cd2576004356001600160a01b0381168103610cd257906024359060443590565b6005546001600160a01b03163303610d2a57565b60405163118cdaa760e01b8152336004820152602490fd5b916001600160a01b03808416928315610e055716928315610ded575f9083825281602052604082205490838210610dbb575091604082827fddf252ad1be2c89b69c2b068fc378daa952ba7f163c4a11628f55a4df523b3ef958760209652828652038282205586815220818154019055604051908152a3565b60405163391434e360e21b81526001600160a01b03919091166004820152602481019190915260448101839052606490fd5b60405163ec442f0560e01b81525f6004820152602490fd5b604051634b637e8f60e11b81525f6004820152602490fd5b15610e2457565b60405162461bcd60e51b815260206004820152602b60248201527f504f49504f493a204f6e6c79206d616e616765722063616e2063616c6c20746860448201526a34b990333ab731ba34b7b760a91b6064820152608490fd5b15610e8457565b60405162461bcd60e51b815260206004820152602560248201527f504f49504f493a20436f6e747261637420697320656d657267656e63792073746044820152641bdc1c195960da1b6064820152608490fd5b15610ede57565b60405162461bcd60e51b815260206004820152602860248201527f504f49504f493a20416d6f756e74206d7573742062652067726561746572207460448201526768616e207a65726f60c01b6064820152608490fd5b60ff60055460a01c16610f4357565b60405163d93c066560e01b8152600490fd5b600260065414610f66576002600655565b604051633ee5aeb560e01b8152600490fdfea2646970667358221220f28d7ba537ee60d0371b12c36681ae9567c842ebfffea22b88845125fca0904964736f6c63430008140033","linkReferences":{}},"methodIdentifiers":{"DECIMALS()":"2e0f2625","INITIAL_SUPPLY()":"2ff2e9dc","allowance(address,address)":"dd62ed3e","approve(address,uint256)":"095ea7b3","balanceOf(address)":"70a08231","burn(address,uint256,uint256)":"f5298aca","decimals()":"313ce567","emergencyStopped()":"e2749c96","getManager()":"d5009584","isEmergencyStopped()":"fddd4837","manager()":"481c6a75","mint(address,uint256,uint256)":"156e29f6","name()":"06fdde03","owner()":"8da5cb5b","pause()":"8456cb59","paused()":"5c975abb","renounceOwnership()":"715018a6","setEmergencyStop(bool)":"c73d7c7b","symbol()":"95d89b41","totalSupply()":"18160ddd","transfer(address,uint256)":"a9059cbb","transferFrom(address,address,uint256)":"23b872dd","transferOwnership(address)":"f2fde38b","unpause()":"3f4ba83a","updateManager(address)":"58aba00f"},"id":35}