{"abi":[{"type":"constructor","inputs":[{"name":"_poiToken","type":"address","internalType":"address"},{"name":"_goldOracle","type":"address","internalType":"address"},{"name":"_collateralToken","type":"address","internalType":"address"}],"stateMutability":"nonpayable"},{"type":"function","name":"calculateCollateralAmount","inputs":[{"name":"poiAmount","type":"uint256","internalType":"uint256"}],"outputs":[{"name":"collateralAmount","type":"uint256","internalType":"uint256"}],"stateMutability":"view"},{"type":"function","name":"calculatePoiAmount","inputs":[{"name":"collateralAmount","type":"uint256","internalType":"uint256"}],"outputs":[{"name":"poiAmount","type":"uint256","internalType":"uint256"}],"stateMutability":"view"},{"type":"function","name":"collateralToken","inputs":[],"outputs":[{"name":"","type":"address","internalType":"contract IERC20"}],"stateMutability":"view"},{"type":"function","name":"emergencyStopped","inputs":[],"outputs":[{"name":"","type":"bool","internalType":"bool"}],"stateMutability":"view"},{"type":"function","name":"emergencyWithdrawCollateral","inputs":[{"name":"amount","type":"uint256","internalType":"uint256"}],"outputs":[],"stateMutability":"nonpayable"},{"type":"function","name":"getCollateralReserves","inputs":[],"outputs":[{"name":"","type":"uint256","internalType":"uint256"}],"stateMutability":"view"},{"type":"function","name":"getCurrentGoldPrice","inputs":[],"outputs":[{"name":"","type":"uint256","internalType":"uint256"}],"stateMutability":"view"},{"type":"function","name":"getPOITotalSupply","inputs":[],"outputs":[{"name":"","type":"uint256","internalType":"uint256"}],"stateMutability":"view"},{"type":"function","name":"goldOracle","inputs":[],"outputs":[{"name":"","type":"address","internalType":"contract GoldPriceOracle"}],"stateMutability":"view"},{"type":"function","name":"isPriceStale","inputs":[],"outputs":[{"name":"","type":"bool","internalType":"bool"}],"stateMutability":"view"},{"type":"function","name":"mintPoi","inputs":[{"name":"collateralAmount","type":"uint256","internalType":"uint256"}],"outputs":[{"name":"poiAmount","type":"uint256","internalType":"uint256"}],"stateMutability":"nonpayable"},{"type":"function","name":"owner","inputs":[],"outputs":[{"name":"","type":"address","internalType":"address"}],"stateMutability":"view"},{"type":"function","name":"pause","inputs":[],"outputs":[],"stateMutability":"nonpayable"},{"type":"function","name":"paused","inputs":[],"outputs":[{"name":"","type":"bool","internalType":"bool"}],"stateMutability":"view"},{"type":"function","name":"poiToken","inputs":[],"outputs":[{"name":"","type":"address","internalType":"contract POIPOI"}],"stateMutability":"view"},{"type":"function","name":"redeemPoi","inputs":[{"name":"poiAmount","type":"uint256","internalType":"uint256"}],"outputs":[{"name":"collateralAmount","type":"uint256","internalType":"uint256"}],"stateMutability":"nonpayable"},{"type":"function","name":"renounceOwnership","inputs":[],"outputs":[],"stateMutability":"nonpayable"},{"type":"function","name":"setEmergencyStop","inputs":[{"name":"stopped","type":"bool","internalType":"bool"}],"outputs":[],"stateMutability":"nonpayable"},{"type":"function","name":"transferOwnership","inputs":[{"name":"newOwner","type":"address","internalType":"address"}],"outputs":[],"stateMutability":"nonpayable"},{"type":"function","name":"unpause","inputs":[],"outputs":[],"stateMutability":"nonpayable"},{"type":"function","name":"updateCollateralToken","inputs":[{"name":"_collateralToken","type":"address","internalType":"address"}],"outputs":[],"stateMutability":"nonpayable"},{"type":"function","name":"updateGoldOracle","inputs":[{"name":"_goldOracle","type":"address","internalType":"address"}],"outputs":[],"stateMutability":"nonpayable"},{"type":"function","name":"updatePOIToken","inputs":[{"name":"_poiToken","type":"address","internalType":"address"}],"outputs":[],"stateMutability":"nonpayable"},{"type":"event","name":"CollateralTokenUpdated","inputs":[{"name":"oldToken","type":"address","indexed":true,"internalType":"address"},{"name":"newToken","type":"address","indexed":true,"internalType":"address"}],"anonymous":false},{"type":"event","name":"EmergencyStop","inputs":[{"name":"stopped","type":"bool","indexed":false,"internalType":"bool"}],"anonymous":false},{"type":"event","name":"OracleUpdated","inputs":[{"name":"oldOracle","type":"address","indexed":true,"internalType":"address"},{"name":"newOracle","type":"address","indexed":true,"internalType":"address"}],"anonymous":false},{"type":"event","name":"OwnershipTransferred","inputs":[{"name":"previousOwner","type":"address","indexed":true,"internalType":"address"},{"name":"newOwner","type":"address","indexed":true,"internalType":"address"}],"anonymous":false},{"type":"event","name":"POITokenUpdated","inputs":[{"name":"oldToken","type":"address","indexed":true,"internalType":"address"},{"name":"newToken","type":"address","indexed":true,"internalType":"address"}],"anonymous":false},{"type":"event","name":"Paused","inputs":[{"name":"account","type":"address","indexed":false,"internalType":"address"}],"anonymous":false},{"type":"event","name":"TokensMinted","inputs":[{"name":"user","type":"address","indexed":true,"internalType":"address"},{"name":"poiAmount","type":"uint256","indexed":false,"internalType":"uint256"},{"name":"collateralAmount","type":"uint256","indexed":false,"internalType":"uint256"},{"name":"goldPrice","type":"uint256","indexed":false,"internalType":"uint256"}],"anonymous":false},{"type":"event","name":"TokensRedeemed","inputs":[{"name":"user","type":"address","indexed":true,"internalType":"address"},{"name":"poiAmount","type":"uint256","indexed":false,"internalType":"uint256"},{"name":"collateralAmount","type":"uint256","indexed":false,"internalType":"uint256"},{"name":"goldPrice","type":"uint256","indexed":false,"internalType":"uint256"}],"anonymous":false},{"type":"event","name":"Unpaused","inputs":[{"name":"account","type":"address","indexed":false,"internalType":"address"}],"anonymous":false},{"type":"error","name":"EnforcedPause","inputs":[]},{"type":"error","name":"ExpectedPause","inputs":[]},{"type":"error","name":"OwnableInvalidOwner","inputs":[{"name":"owner","type":"address","internalType":"address"}]},{"type":"error","name":"OwnableUnauthorizedAccount","inputs":[{"name":"account","type":"address","internalType":"address"}]},{"type":"error","name":"ReentrancyGuardReentrantCall","inputs":[]},{"type":"error","name":"SafeERC20FailedOperation","inputs":[{"name":"token","type":"address","internalType":"address"}]}],"bytecode":{"object":"0x6080346200024357601f620016d038819003918201601f191683019291906001600160401b0384118385101762000247578160609284926040968752833981010312620002435762000051816200025b565b6200006c8362000064602085016200025b565b93016200025b565b33156200022c575f80546001600160a01b031980821633908117845587519691936001600160a01b03938416907f8be0079c531659141344cd1fd0a4f28419497f9722a3daafe3b4186f6b6457e09080a360018055816004549516958615620001d2575081169283156200017957169384156200010f57816002541617600255600354161760035560018060a81b031916176004555161145f9081620002718239f35b855162461bcd60e51b815260206004820152603660248201527f504f49504f494d616e616765723a20436f6c6c61746572616c20746f6b656e2060448201527f616464726573732063616e6e6f74206265207a65726f000000000000000000006064820152608490fd5b865162461bcd60e51b815260206004820152602c60248201527f504f49504f494d616e616765723a204f7261636c65206164647265737320636160448201526b6e6e6f74206265207a65726f60a01b6064820152608490fd5b62461bcd60e51b815260206004820152602f60248201527f504f49504f494d616e616765723a20504f4920746f6b656e206164647265737360448201526e2063616e6e6f74206265207a65726f60881b6064820152608490fd5b8351631e4fbdf760e01b81525f6004820152602490fd5b5f80fd5b634e487b7160e01b5f52604160045260245ffd5b51906001600160a01b0382168203620002435756fe604060808152600480361015610013575f80fd5b5f91823560e01c8063139b512914610de8578063184bf29914610d2057806329d0610814610c4b5780632f5df72514610bbd578063366b73a714610b72578063398e67b3146108e157806339ee7d1e1461080d5780633f4ba83a1461079f5780634a947eb1146107765780635c975abb146107515780635f6542de146106fe578063715018a6146106a45780637ffa3e44146105cd5780638456cb591461056e5780638da5cb5b1461054657806397a3b4de1461051d578063a08377ab1461040f578063b2016bd4146103e7578063c73d7c7b14610378578063e2749c9614610352578063f2fde38b146102c5578063f7be3819146101aa5763fb4a8a7b1461011a575f80fd5b3461019457826003193601126101945760025481516318160ddd60e01b81529260209184919082906001600160a01b03165afa9182156101a0578392610165575b6020838351908152f35b9091506020813d8211610198575b81610180602093836112b7565b81010312610194576020925051905f61015b565b8280fd5b3d9150610173565b81513d85823e3d90fd5b508290346102c157602092836003193601126101945780356101cd81151561122b565b6003548351630ab5d37f60e11b81526001600160a01b03909116929086818381875afa9081156102b7579087939291879161027e575b509061021260249215156112d9565b855194859384926355b756b760e01b84528301525afa92831561027357809361023e575b505051908152f35b909192508382813d831161026c575b61025781836112b7565b81010312610269575051908380610236565b80fd5b503d61024d565b8251903d90823e3d90fd5b848193949592503d83116102b0575b61029781836112b7565b810103126102ac575186929190610212610203565b8580fd5b503d61028d565b85513d88823e3d90fd5b5080fd5b5034610194576020366003190112610194576001600160a01b0382358181169391929084900361034e576102f761119f565b831561033857505082546001600160a01b0319811683178455167f8be0079c531659141344cd1fd0a4f28419497f9722a3daafe3b4186f6b6457e08380a380f35b51631e4fbdf760e01b8152908101849052602490fd5b8480fd5b5082346102695780600319360112610269575060ff6020925460a01c1690519015158152f35b5090346101945760203660031901126101945780358015158091036103e3577fcbe1b789cda412d9e1c647ed03d0c71e2f71484be36f9ca2b2a346b29edf1b70926020926103c461119f565b805460ff60a01b191660a084901b60ff60a01b1617905551908152a180f35b8380fd5b5090346101945782600319360112610194575490516001600160a01b03909116815260209150f35b509190346102c1576020806003193601126101945781359161042f61119f565b61043a83151561122b565b805485516370a0823160e01b815230818401526001600160a01b0391821693919291908181602481885afa9081156105135790869188916104de575b50106104905750508361048d9495505416906113d7565b80f35b865162461bcd60e51b815291820152602360248201527f504f49504f494d616e616765723a20496e73756666696369656e742062616c616044820152626e636560e81b606482015260849150fd5b809250838092503d831161050c575b6104f781836112b7565b81010312610508578590515f610476565b8680fd5b503d6104ed565b88513d89823e3d90fd5b8382346102c157816003193601126102c15760035490516001600160a01b039091168152602090f35b8382346102c157816003193601126102c157905490516001600160a01b039091168152602090f35b8382346102c157816003193601126102c15760207f62e78cea01bee320cd4e420270b5ea74000d11b0c9f74754ebdbfc544b05a258916105ac61119f565b6105b4611394565b835460ff60a01b1916600160a01b17845551338152a180f35b5034610194576020366003190112610194576001600160a01b0382358181169391929084900361034e576105ff61119f565b8315610649575050600254826bffffffffffffffffffffffff60a01b821617600255167f3136d41821faadb13fbf9a4a5cbee6cbb9e6e586dce0814e12a1d860fddf069d8380a380f35b906020608492519162461bcd60e51b8352820152602f60248201527f504f49504f494d616e616765723a20504f4920746f6b656e206164647265737360448201526e2063616e6e6f74206265207a65726f60881b6064820152fd5b83346102695780600319360112610269576106bd61119f565b80546001600160a01b03198116825581906001600160a01b03167f8be0079c531659141344cd1fd0a4f28419497f9722a3daafe3b4186f6b6457e08280a380f35b5034610194578260031936011261019457815481516370a0823160e01b81523093810193909352602090839060249082906001600160a01b03165afa9182156101a0578392610165576020838351908152f35b8382346102c157816003193601126102c15760ff6020925460a01c1690519015158152f35b8382346102c157816003193601126102c15760025490516001600160a01b039091168152602090f35b5090346101945782600319360112610194576107b961119f565b82549060ff8260a01c16156107ff575060ff60a01b19168255513381527f5db9ee0a495bf2e6ff9c91a7834c1ba4fdd244a5e8aa4e537bd38aeae4b073aa90602090a180f35b8251638dfc202b60e01b8152fd5b5034610194576020366003190112610194576001600160a01b0382358181169391929084900361034e5761083f61119f565b8315610889575050600354826bffffffffffffffffffffffff60a01b821617600355167f078c3b417dadf69374a59793b829c52001247130433427049317bde56607b1b78380a380f35b906020608492519162461bcd60e51b8352820152602c60248201527f504f49504f494d616e616765723a204f7261636c65206164647265737320636160448201526b6e6e6f74206265207a65726f60a01b6064820152fd5b508290346102c157602091826003193601126102695783359061090b60ff865460a01c16156111ca565b610913611394565b61091b6113b4565b61092682151561122b565b6003548351630ab5d37f60e11b81526001600160a01b0391821696909291868483818b5afa938415610b37578394610b41575b50866024979861096a8615156112d9565b8751988980926340814f2160e01b825289878301525afa968715610b37578397610b08575b508615610ab057815486516323b872dd60e01b8a8201523360248201523060448201526064808201889052815290821660a0820167ffffffffffffffff811183821017610a9d5788526109e2919061132f565b6002541690813b15610194578551630ab714fb60e11b81523391810191825260208201889052604082018590529291829184919082908490829060600103925af1908115610a92575091610a76917f6155cfd0fd028b0ca77e8495a60cbe563e8bce8611f0aad6fedbdaafc05d44a293610a83575b5084518681526020810194909452604084015233929081906060820190565b0390a26001805551908152f35b610a8c9061128f565b87610a57565b8551903d90823e3d90fd5b634e487b7160e01b865260418552602486fd5b855162461bcd60e51b8152808301899052602c60248201527f504f49504f494d616e616765723a2043616c63756c6174656420504f4920616d60448201526b6f756e74206973207a65726f60a01b6064820152608490fd5b9096508781813d8311610b30575b610b2081836112b7565b810103126101945751958861098f565b503d610b16565b86513d85823e3d90fd5b9793508688813d8311610b6b575b610b5981836112b7565b81010312610194579651929686610959565b503d610b4f565b50346101945782600319360112610194576003548151630ab5d37f60e11b81529260209184919082906001600160a01b03165afa9182156101a0578392610165576020838351908152f35b50346101945782600319360112610194576003548151632f5df72560e01b81529260209184919082906001600160a01b03165afa9182156101a0578392610c0b575b60208383519015158152f35b9091506020813d8211610c43575b81610c26602093836112b7565b81010312610194575180151581036101945760209250905f610bff565b3d9150610c19565b5034610194576020366003190112610194576001600160a01b0382358181169391929084900361034e57610c7d61119f565b8315610cbe575080546001600160a01b031981168417909155167f46d7791d88f463e6475b83368a457427af4215dbd0257816e43bdda3bb8878748380a380f35b906020608492519162461bcd60e51b8352820152603660248201527f504f49504f494d616e616765723a20436f6c6c61746572616c20746f6b656e20604482015275616464726573732063616e6e6f74206265207a65726f60501b6064820152fd5b508290346102c15760209283600319360112610194578035610d4381151561122b565b6003548351630ab5d37f60e11b81526001600160a01b03909116929086818381875afa9081156102b75790879392918791610db3575b5090610d8860249215156112d9565b855194859384926340814f2160e01b84528301525afa92831561027357809361023e57505051908152f35b848193949592503d8311610de1575b610dcc81836112b7565b810103126102ac575186929190610d88610d79565b503d610dc2565b5034610194576020928360031936011261026957823590610e1060ff855460a01c16156111ca565b610e18611394565b610e206113b4565b610e2b82151561122b565b60025483516370a0823160e01b8082523382880152602496909390926001600160a01b0392908316919089818a81865afa908115611195579087918391611164575b5010611112576003548751630ab5d37f60e11b8152959084168a878781845afa968715611047578a92918c9185996110de575b50610eac8915156112d9565b8a519b8c80926355b756b760e01b82528c8b8301525afa998a1561104757839a6110af575b508915611051578a8587541691838b51809481938252308b8301525afa90811561104757908a918491611016575b5010610fbd5750813b15610269578651637a94c56560e11b81523385820190815260208101889052604081018790529092829184919082908490829060600103925af1908115610fb25750610a76937fbac106664789786e9447ad88f3982270e2061a36e65e191da1d7707d87e284ff9593610f86938a93610fa3575b50339154166113d7565b845193845260208401869052604084015233929081906060820190565b610fac9061128f565b5f610f7c565b8751903d90823e3d90fd5b84602f6084928c8b519362461bcd60e51b85528401528201527f504f49504f494d616e616765723a20496e73756666696369656e7420636f6c6c60448201526e61746572616c20726573657276657360881b6064820152fd5b8092508c8092503d8311611040575b61102f81836112b7565b81010312610194578990515f610eff565b503d611025565b89513d85823e3d90fd5b885162461bcd60e51b81528087018c90526033818401527f504f49504f494d616e616765723a2043616c63756c6174656420636f6c6c61746044820152726572616c20616d6f756e74206973207a65726f60681b6064820152608490fd5b9099508a81813d83116110d7575b6110c781836112b7565b810103126101945751985f610ed1565b503d6110bd565b929350975081813d831161110b575b6110f781836112b7565b8101031261019457908a8a9251975f610ea0565b503d6110ed565b865162461bcd60e51b81528085018a90526027818a01527f504f49504f494d616e616765723a20496e73756666696369656e7420504f492060448201526662616c616e636560c81b6064820152608490fd5b8092508b8092503d831161118e575b61117d81836112b7565b810103126102c1578690515f610e6d565b503d611173565b88513d84823e3d90fd5b5f546001600160a01b031633036111b257565b60405163118cdaa760e01b8152336004820152602490fd5b156111d157565b60405162461bcd60e51b815260206004820152602c60248201527f504f49504f494d616e616765723a20436f6e747261637420697320656d65726760448201526b195b98de481cdd1bdc1c195960a21b6064820152608490fd5b1561123257565b60405162461bcd60e51b815260206004820152602f60248201527f504f49504f494d616e616765723a20416d6f756e74206d75737420626520677260448201526e6561746572207468616e207a65726f60881b6064820152608490fd5b67ffffffffffffffff81116112a357604052565b634e487b7160e01b5f52604160045260245ffd5b90601f8019910116810190811067ffffffffffffffff8211176112a357604052565b156112e057565b60405162461bcd60e51b815260206004820152602160248201527f504f49504f494d616e616765723a20496e76616c696420676f6c6420707269636044820152606560f81b6064820152608490fd5b905f602091828151910182855af115611389575f513d61138057506001600160a01b0381163b155b61135e5750565b604051635274afe760e01b81526001600160a01b039091166004820152602490fd5b60011415611357565b6040513d5f823e3d90fd5b60ff5f5460a01c166113a257565b60405163d93c066560e01b8152600490fd5b6002600154146113c5576002600155565b604051633ee5aeb560e01b8152600490fd5b60405163a9059cbb60e01b60208201526001600160a01b039092166024830152604480830193909352918152608081019167ffffffffffffffff8311828410176112a3576114279260405261132f565b56fea26469706673582212206b502ab53ef026679b6e1e9b8271de78e527050893e4a2b7330316bbf75962a864736f6c63430008140033","linkReferences":{}},"methodIdentifiers":{"calculateCollateralAmount(uint256)":"f7be3819","calculatePoiAmount(uint256)":"184bf299","collateralToken()":"b2016bd4","emergencyStopped()":"e2749c96","emergencyWithdrawCollateral(uint256)":"a08377ab","getCollateralReserves()":"5f6542de","getCurrentGoldPrice()":"366b73a7","getPOITotalSupply()":"fb4a8a7b","goldOracle()":"97a3b4de","isPriceStale()":"2f5df725","mintPoi(uint256)":"398e67b3","owner()":"8da5cb5b","pause()":"8456cb59","paused()":"5c975abb","poiToken()":"4a947eb1","redeemPoi(uint256)":"139b5129","renounceOwnership()":"715018a6","setEmergencyStop(bool)":"c73d7c7b","transferOwnership(address)":"f2fde38b","unpause()":"3f4ba83a","updateCollateralToken(address)":"29d06108","updateGoldOracle(address)":"39ee7d1e","updatePOIToken(address)":"7ffa3e44"},"id":37}