{"abi":[{"type":"constructor","inputs":[],"stateMutability":"nonpayable"},{"type":"function","name":"INITIAL_SUPPLY","inputs":[],"outputs":[{"name":"","type":"uint256","internalType":"uint256"}],"stateMutability":"view"},{"type":"function","name":"allowance","inputs":[{"name":"owner","type":"address","internalType":"address"},{"name":"spender","type":"address","internalType":"address"}],"outputs":[{"name":"","type":"uint256","internalType":"uint256"}],"stateMutability":"view"},{"type":"function","name":"approve","inputs":[{"name":"spender","type":"address","internalType":"address"},{"name":"value","type":"uint256","internalType":"uint256"}],"outputs":[{"name":"","type":"bool","internalType":"bool"}],"stateMutability":"nonpayable"},{"type":"function","name":"balanceOf","inputs":[{"name":"account","type":"address","internalType":"address"}],"outputs":[{"name":"","type":"uint256","internalType":"uint256"}],"stateMutability":"view"},{"type":"function","name":"decimals","inputs":[],"outputs":[{"name":"","type":"uint8","internalType":"uint8"}],"stateMutability":"pure"},{"type":"function","name":"mint","inputs":[{"name":"to","type":"address","internalType":"address"},{"name":"amount","type":"uint256","internalType":"uint256"}],"outputs":[],"stateMutability":"nonpayable"},{"type":"function","name":"mintToSelf","inputs":[{"name":"amount","type":"uint256","internalType":"uint256"}],"outputs":[],"stateMutability":"nonpayable"},{"type":"function","name":"name","inputs":[],"outputs":[{"name":"","type":"string","internalType":"string"}],"stateMutability":"view"},{"type":"function","name":"owner","inputs":[],"outputs":[{"name":"","type":"address","internalType":"address"}],"stateMutability":"view"},{"type":"function","name":"renounceOwnership","inputs":[],"outputs":[],"stateMutability":"nonpayable"},{"type":"function","name":"symbol","inputs":[],"outputs":[{"name":"","type":"string","internalType":"string"}],"stateMutability":"view"},{"type":"function","name":"totalSupply","inputs":[],"outputs":[{"name":"","type":"uint256","internalType":"uint256"}],"stateMutability":"view"},{"type":"function","name":"transfer","inputs":[{"name":"to","type":"address","internalType":"address"},{"name":"value","type":"uint256","internalType":"uint256"}],"outputs":[{"name":"","type":"bool","internalType":"bool"}],"stateMutability":"nonpayable"},{"type":"function","name":"transferFrom","inputs":[{"name":"from","type":"address","internalType":"address"},{"name":"to","type":"address","internalType":"address"},{"name":"value","type":"uint256","internalType":"uint256"}],"outputs":[{"name":"","type":"bool","internalType":"bool"}],"stateMutability":"nonpayable"},{"type":"function","name":"transferOwnership","inputs":[{"name":"newOwner","type":"address","internalType":"address"}],"outputs":[],"stateMutability":"nonpayable"},{"type":"event","name":"Approval","inputs":[{"name":"owner","type":"address","indexed":true,"internalType":"address"},{"name":"spender","type":"address","indexed":true,"internalType":"address"},{"name":"value","type":"uint256","indexed":false,"internalType":"uint256"}],"anonymous":false},{"type":"event","name":"OwnershipTransferred","inputs":[{"name":"previousOwner","type":"address","indexed":true,"internalType":"address"},{"name":"newOwner","type":"address","indexed":true,"internalType":"address"}],"anonymous":false},{"type":"event","name":"TokensMinted","inputs":[{"name":"to","type":"address","indexed":true,"internalType":"address"},{"name":"amount","type":"uint256","indexed":false,"internalType":"uint256"}],"anonymous":false},{"type":"event","name":"Transfer","inputs":[{"name":"from","type":"address","indexed":true,"internalType":"address"},{"name":"to","type":"address","indexed":true,"internalType":"address"},{"name":"value","type":"uint256","indexed":false,"internalType":"uint256"}],"anonymous":false},{"type":"error","name":"ERC20InsufficientAllowance","inputs":[{"name":"spender","type":"address","internalType":"address"},{"name":"allowance","type":"uint256","internalType":"uint256"},{"name":"needed","type":"uint256","internalType":"uint256"}]},{"type":"error","name":"ERC20InsufficientBalance","inputs":[{"name":"sender","type":"address","internalType":"address"},{"name":"balance","type":"uint256","internalType":"uint256"},{"name":"needed","type":"uint256","internalType":"uint256"}]},{"type":"error","name":"ERC20InvalidApprover","inputs":[{"name":"approver","type":"address","internalType":"address"}]},{"type":"error","name":"ERC20InvalidReceiver","inputs":[{"name":"receiver","type":"address","internalType":"address"}]},{"type":"error","name":"ERC20InvalidSender","inputs":[{"name":"sender","type":"address","internalType":"address"}]},{"type":"error","name":"ERC20InvalidSpender","inputs":[{"name":"spender","type":"address","internalType":"address"}]},{"type":"error","name":"OwnableInvalidOwner","inputs":[{"name":"owner","type":"address","internalType":"address"}]},{"type":"error","name":"OwnableUnauthorizedAccount","inputs":[{"name":"account","type":"address","internalType":"address"}]}],"bytecode":{"object":"0x608034620003d0576040906001600160401b039080830182811182821017620002db578352601581526020907f4d6f636b20436f6c6c61746572616c20546f6b656e00000000000000000000008282015283519284840184811082821117620002db5785526003808552621350d560ea1b848601528251828111620002db578154906001948583811c93168015620003c5575b87841014620003b1578190601f938481116200035e575b508790848311600114620002fb575f92620002ef575b50505f1982851b1c191690851b1782555b8551928311620002db5760049586548581811c91168015620002d0575b87821014620002bd5782811162000275575b50859184116001146200020e579383949184925f9562000202575b50501b925f19911b1c19161782555b3315620001ec5760058054336001600160a01b0319821681179092556001600160a01b03167f8be0079c531659141344cd1fd0a4f28419497f9722a3daafe3b4186f6b6457e05f80a360025469d3c21bcecceda100000092838201809211620001d957505f917fddf252ad1be2c89b69c2b068fc378daa952ba7f163c4a11628f55a4df523b3ef9160025533835282815284832084815401905584519384523393a351610a649081620003d58239f35b601190634e487b7160e01b5f525260245ffd5b505f6024925191631e4fbdf760e01b8352820152fd5b015193505f806200011a565b9190601f19841692875f5284875f20945f5b89898383106200025d575050501062000243575b50505050811b01825562000129565b01519060f8845f19921b161c191690555f80808062000234565b86860151895590970196948501948893500162000220565b875f52865f208380870160051c820192898810620002b3575b0160051c019086905b828110620002a7575050620000ff565b5f815501869062000297565b925081926200028e565b602288634e487b7160e01b5f525260245ffd5b90607f1690620000ed565b634e487b7160e01b5f52604160045260245ffd5b015190505f80620000bf565b90879350601f19831691865f52895f20925f5b8b8282106200034757505084116200032f575b505050811b018255620000d0565b01515f1983871b60f8161c191690555f808062000321565b8385015186558b979095019493840193016200030e565b909150845f52875f208480850160051c8201928a8610620003a7575b918991869594930160051c01915b82811062000398575050620000a9565b5f815585945089910162000388565b925081926200037a565b634e487b7160e01b5f52602260045260245ffd5b92607f169262000092565b5f80fdfe60806040818152600480361015610014575f80fd5b5f92833560e01c90816306fdde03146106dd57508063095ea7b31461063457806318160ddd1461061557806323b872dd146105235780632ff2e9dc146104fe578063313ce567146104e257806340c10f191461040b57806370a08231146103d4578063715018a6146103745780638da5cb5b1461034b57806395d89b411461022b578063a9059cbb146101fa578063bb6d5e3b146101a4578063dd62ed3e146101575763f2fde38b146100c5575f80fd5b34610153576020366003190112610153576100de610819565b906100e7610849565b6001600160a01b0391821692831561013d575050600554826bffffffffffffffffffffffff60a01b821617600555167f8be0079c531659141344cd1fd0a4f28419497f9722a3daafe3b4186f6b6457e08380a380f35b51631e4fbdf760e01b8152908101849052602490fd5b8280fd5b5050346101a057806003193601126101a05780602092610175610819565b61017d610833565b6001600160a01b0391821683526001865283832091168252845220549051908152f35b5080fd5b50346101535760203660031901126101535735906101c3821515610950565b6101cd82336109ba565b519081527f3f2c9d57c068687834f0de942a9babb9e5acab57d516d3480a3c16ee165a427360203392a280f35b5050346101a057806003193601126101a05760209061022461021a610819565b6024359033610875565b5160018152f35b509190346101a057816003193601126101a057805190828454600181811c90808316928315610341575b602093848410811461032e5783885290811561031257506001146102bd575b505050829003601f01601f191682019267ffffffffffffffff8411838510176102aa57508291826102a69252826107d2565b0390f35b634e487b7160e01b815260418552602490fd5b8787529192508591837f8a35acfbc15ff81a39ae7d344fd709f28e8600b4aa8c65c6b64bfe7fe36bd19b5b8385106102fe57505050508301015f8080610274565b8054888601830152930192849082016102e8565b60ff1916878501525050151560051b84010190505f8080610274565b634e487b7160e01b895260228a52602489fd5b91607f1691610255565b5050346101a057816003193601126101a05760055490516001600160a01b039091168152602090f35b83346103d157806003193601126103d15761038d610849565b600580546001600160a01b0319811690915581906001600160a01b03167f8be0079c531659141344cd1fd0a4f28419497f9722a3daafe3b4186f6b6457e08280a380f35b80fd5b5050346101a05760203660031901126101a05760209181906001600160a01b036103fc610819565b16815280845220549051908152f35b509034610153578060031936011261015357610425610819565b9060243591610432610849565b6001600160a01b03811693841561048657509160209161047e827f3f2c9d57c068687834f0de942a9babb9e5acab57d516d3480a3c16ee165a427395610479821515610950565b6109ba565b51908152a280f35b608490602084519162461bcd60e51b8352820152603060248201527f4d6f636b436f6c6c61746572616c546f6b656e3a2043616e6e6f74206d696e7460448201526f20746f207a65726f206164647265737360801b6064820152fd5b5050346101a057816003193601126101a0576020905160128152f35b5050346101a057816003193601126101a0576020905169d3c21bcecceda10000008152f35b5082346103d15760603660031901126103d15761053e610819565b610546610833565b916044359360018060a01b038316808352600160205286832033845260205286832054915f198310610581575b602088610224898989610875565b8683106105e95781156105d25733156105bb5750825260016020908152868320338452815291869020908590039055829061022487610573565b8751634a1406b160e11b8152908101849052602490fd5b875163e602df0560e01b8152908101849052602490fd5b8751637dc7a0d960e11b8152339181019182526020820193909352604081018790528291506060010390fd5b5050346101a057816003193601126101a0576020906002549051908152f35b503461015357816003193601126101535761064d610819565b6024359033156106c6576001600160a01b03169182156106af57508083602095338152600187528181208582528752205582519081527f8c5be1e5ebec7d5bd14f71427d1e84f3dd0314c0f7b2291e5b200ac8c7c3b925843392a35160018152f35b8351634a1406b160e11b8152908101859052602490fd5b835163e602df0560e01b8152808401869052602490fd5b849150833461015357826003193601126101535782600354600181811c908083169283156107c8575b602093848410811461032e578388529081156107ac575060011461075657505050829003601f01601f191682019267ffffffffffffffff8411838510176102aa57508291826102a69252826107d2565b600387529192508591837fc2575a0e9e593c00f959f8c92f12db2869c3395a3b0502d05e2516446f71f85b5b8385106107985750505050830101858080610274565b805488860183015293019284908201610782565b60ff1916878501525050151560051b8401019050858080610274565b91607f1691610706565b602080825282518183018190529093925f5b82811061080557505060409293505f838284010152601f8019910116010190565b8181018601518482016040015285016107e4565b600435906001600160a01b038216820361082f57565b5f80fd5b602435906001600160a01b038216820361082f57565b6005546001600160a01b0316330361085d57565b60405163118cdaa760e01b8152336004820152602490fd5b916001600160a01b038084169283156109385716928315610920575f90838252816020526040822054908382106108ee575091604082827fddf252ad1be2c89b69c2b068fc378daa952ba7f163c4a11628f55a4df523b3ef958760209652828652038282205586815220818154019055604051908152a3565b60405163391434e360e21b81526001600160a01b03919091166004820152602481019190915260448101839052606490fd5b60405163ec442f0560e01b81525f6004820152602490fd5b604051634b637e8f60e11b81525f6004820152602490fd5b1561095757565b60405162461bcd60e51b815260206004820152603560248201527f4d6f636b436f6c6c61746572616c546f6b656e3a20416d6f756e74206d7573746044820152742062652067726561746572207468616e207a65726f60581b6064820152608490fd5b6001600160a01b03169081156109205760025490808201809211610a1a5760207fddf252ad1be2c89b69c2b068fc378daa952ba7f163c4a11628f55a4df523b3ef915f9360025584845283825260408420818154019055604051908152a3565b634e487b7160e01b5f52601160045260245ffdfea2646970667358221220cd6af83bb41f489f14a3c7642595a3ba0be91fc943ff8be2c69782687017b66964736f6c63430008140033","linkReferences":{}},"methodIdentifiers":{"INITIAL_SUPPLY()":"2ff2e9dc","allowance(address,address)":"dd62ed3e","approve(address,uint256)":"095ea7b3","balanceOf(address)":"70a08231","decimals()":"313ce567","mint(address,uint256)":"40c10f19","mintToSelf(uint256)":"bb6d5e3b","name()":"06fdde03","owner()":"8da5cb5b","renounceOwnership()":"715018a6","symbol()":"95d89b41","totalSupply()":"18160ddd","transfer(address,uint256)":"a9059cbb","transferFrom(address,address,uint256)":"23b872dd","transferOwnership(address)":"f2fde38b"},"id":30}